:020000040800F2
:10000000E8070020010100086722000851190008D4
:100010006522000821060008712700080000000082
:100020000000000000000000000000008D22000819
:1000300079080008000000008D0100086123000815
:100040001B0100081B0100081B0100081B01000820
:100050001B0100081B0100081B0100081B01000810
:100060001B0100081B0100081B0100081B01000800
:100070001B0100081B0100081B0100081B010008F0
:100080001B0100081B0100081B0100081B010008E0
:100090001B0100081B0100081B0100081B010008D0
:1000A0001B0100081B0100081B0100081B010008C0
:1000B0001B0100081B0100081B0100081B010008B0
:1000C0001B0100081B0100081B0100081B010008A0
:1000D0001B01000859270008652700081B010008BC
:1000E0001B0100081B0100081B010008DFF80CD0F1
:1000F00000F00CF900480047612C0008E8070020D8
:100100000648804706480047FEE7FEE7FEE7FEE7B1
:10011000FEE7FEE7FEE7FEE7FEE7FEE7E123000875
:10012000ED00000872B62C482C49026841EA020131
:1001300001602B484FF0010101602A4841680160CD
:1001400001688A884FF0100342EA03028A80D1F8DE
:1001500000C00CF1240CBCE8FF008CF309884FF0C0
:10016000020C8CF31488AE4662B63047EFF3108071
:1001700072B67047EFF3108062B6704780F3108854
:10018000704719484FF0805101607047EFF3108CB1
:1001900072B6164A126822B12DE900509047BDE8A8
:1001A0000050EFF3098020E9F01F0E4D4FF01008CA
:1001B0002E683060B78827EA0807B780686828602B
:1001C000878847EA080787800168B1E8F01F81F354
:1001D00009888CF31088704720ED00E00000FFFFD5
:1001E000580000205C00002004ED00E040000020EA
:1001F0002DE9F05F0546002092469B46884606465C
:10020000814640241BE0284641464746224600F0EE
:1002100020F853465A46C01A914110D31146184649
:10022000224600F063F82D1A67EB01084F4622467C
:100230000120002100F05AF817EB00094E41201E62
:10024000A4F10104DFDC484631462A464346BDE8B6
:10025000F09F202A04DB203A21FA02F000217047A7
:1002600021FA02F3D040C2F120029140084319461E
:10027000704740EA01039B0703D009E008C9121F39
:1002800008C0042AFAD203E011F8013B00F8013B50
:10029000521EF9D27047D2B201E000F8012B491E7C
:1002A000FBD270470022F6E710B513460A46044613
:1002B0001946FFF7F0FF204610BD30B505462A4627
:1002C0000B4612F8010B13F8014B08B1A042F8D00D
:1002D0001CB1002802D06D1CF1E7284630BD421C3D
:1002E00010F8011B0029FBD1801A7047202A04DB7B
:1002F000203A00FA02F1002070479140C2F1200339
:1003000020FA03F31943904070470000064C074D54
:1003100006E0E06840F0010394E8070098471034D5
:10032000AC42F6D3FFF7E6FEA0420008C042000848
:1003300010B54FF4FA74214606A000F01DF82146CE
:1003400005A000F019F82146BDE8104006A000F015
:1003500013B800004154000041542B4E414D455309
:10036000544D33320000000041542B50415353315F
:100370003233343536000000F0B5A1B00F460546E3
:1003800080216846FFF78EFF0024294618A002F05E
:10039000F1F92846FFF7A3FF82B2631E29461848E9
:1003A00001F079FA00281CD100F000FC05466E46E9
:1003B0000AE031190A230122114801F00DFA18B997
:1003C000641CA4B27F2C04D200F0F0FB401BB842A6
:1003D000EFD344B10020305569460AA002F0CAF9B3
:1003E000002021B0F0BD0CA002F0C4F90320F8E712
:1003F000415430392053656E643A2025730D0A004C
:10040000F40000204154303920526573703A2025A1
:10041000730D0A0D0A0000004154303920526573F3
:10042000703A20286E6F6E65290D0A0D0A000000D3
:100430000A460146014800F08FBF0000F40000208A
:1004400070B586B00320ADF8040026A004902848BB
:100450004FF48065009069460395264801F080FCC2
:10046000040002D0014624A035E00420ADF80400C9
:100470002AA004902B4800901E4869460395001D51
:1004800001F06EFC040002D0014627A023E02EA05C
:1004900004902E480090174805254FF40076ADF8DB
:1004A000045069460396083001F05AFC040002D05B
:1004B000014627A00FE02EA004902F4800900D4881
:1004C000ADF80450694603960C3001F049FC040075
:1004D00006D0014629A002F04DF9204606B070BDB5
:1004E0000020FBE753656E736F7252656164000014
:1004F000912200080800002053656E736F725461EA
:10050000736B20637265617465206661696C6564F4
:100510002C20307825580D0A000000004254536505
:100520006E640000C105000842545461736B20637F
:100530007265617465206661696C65642C20307831
:1005400025580D0A000000004C45440041210008D8
:100550004C65645461736B206372656174652066D9
:1005600061696C65642C20307825580D0A00000004
:1005700042757A7A657200002506000842757A7A1B
:1005800065725461736B2063726561746520666186
:10059000696C65642C20307825580D0A0000000035
:1005A00010B50446FFF79BFE214682B2BDE810401D
:1005B0004FF0FF33014801F06EB90000F400002055
:1005C00092B00C4C41F28835A178A088CDE90001A9
:1005D0006378227808A102A802F0DCF802A8FFF7ED
:1005E000DFFF02A90AA002F0C5F8284601F098FC36
:1005F000EAE7000000000020543A25642C483A2520
:10060000642C4C3A25642C413A25640A0000000011
:100610005B42542053656E645D202573000000002A
:10062000FEE700001B4C1C4E4FF4FA774FF4FA68BB
:100630004FF480754FF47A79A07880070ED50022A8
:100640002946304600F0ABFA384601F069FC012239
:100650002946304600F0A3FA384617E0A078C007D4
:100660000ED000222946304600F099FA484601F0A3
:1006700057FC01222946304600F091FA404605E039
:1006800001222946304600F08AFA484601F048FC2B
:10069000D2E7000000000020000C0140084810B51F
:1006A000016841F0807101600648002141600168E5
:1006B00041F00101016000F0BFF8002010BD000012
:1006C000FCED00E0001000E02DE9F04387B05FEAA8
:1006D00000094FF0000088460090019077D0B8F1F3
:1006E000000F74D02020029011200390012004906C
:1006F0000220504C059002A9204600F04BF9002240
:100700002021204600F04BFA122000F02FF90122A0
:100710002021204600F043FA1E2600F09DF80546F1
:1007200000F09AF8401BB042FAD300F085F800F0D0
:1007300093F805464FF47A7605E000BF00F08CF898
:10074000401BB0423FD82021204600F021FA01286A
:10075000F4D000F081F8054605E000BF00F07CF819
:10076000401BB0422FD82021204600F011FA00286B
:10077000F4D000F071F8054605E000BF00F06CF819
:10078000401BB0421FD82021204600F001FA01286A
:10079000F4D0002500F060F8074604E000F05CF8B3
:1007A000C01BB0420FD82021204600F0F1F90028EC
:1007B000F4D000F051F807460AE000BF00F04CF812
:1007C000C01BB04204D9032007B0BDE8F08328E085
:1007D0002021204600F0DCF90128EFD000F03CF8A1
:1007E000C01B282801D9012200E00022684600EB46
:1007F000D5016D1C0878EDB2400010430870282D1B
:10080000C8D39DF800109DF801009DF802209DF8C6
:1008100003300844134418449DF80430C0B28342A6
:1008200001D00120D0E789F8001088F800200020CE
:10083000CAE70000000C01401FB5002001900390A2
:1008400020200090012002906946024800F0A2F8A2
:100850001FBD0000000C0140044805490068B0FBC2
:10086000F1F004494968B1FBF0F07047EC0000205A
:1008700040420F00001000E0704772B6FEE790F8AB
:1008800021100022022905D00421816380F8202054
:100890000120704701680B6823F00E030B600168AC
:1008A0000B6823F001030B6090F84030D0F83CC097
:1008B000012101FA03F3CCF8043080F8211080F80C
:1008C000202010467047000010B5002490F8211039
:1008D000022903D004218163012437E001680A68FA
:1008E00022F00E020A6001680A6822F001020A6022
:1008F000174A0168914201D101211CE0154A914239
:1009000001D1102117E0144A914201D1891512E05A
:10091000124A914201D189140DE0114A914202D14B
:100920004FF4803107E00F4A914202D14FF4801119
:1009300001E04FF080710C4A5160012180F82110D4
:10094000002180F82010416B01B18847204610BD7E
:10095000080002401C0002403000024044000240F7
:10096000580002406C0002400000024070B504468E
:1009700000F01CF90546B4F1FF3F02D004480078AE
:10098000044400F013F9401BA042FAD370BD0000EC
:10099000E00000202DE9F84F4FF0000C00230A681A
:1009A000002A7DD0DFF8DC810F27A8F1040A08F1C6
:1009B0000409AAF1040B012202FA0CF60A6832407B
:1009C000B2426ED1DFF8C0E14C68A4EB0E0574456D
:1009D0002BD00DDC032C34D005DC34B3012C19D022
:1009E000022C2FD11BE0112C16D0122C2AD119E089
:1009F000B5F5881F19D006DCB5F5803F15D0B5F5E3
:100A0000801F1FD111E0B5F5001F0ED0B5F5041FF2
:100A100018D10AE0CB6815E0CB681B1D12E0CB684B
:100A200008330FE0CB680C330CE08B6823B1012B4B
:100A300004D00823466105E0042303E0082306618F
:100A400000E00023B2F5807F01D2054601E000F10D
:100A5000040502D24FEA8C0403E0ACF108044FEA2B
:100A600084042E6807FA04FE26EA0E0603FA04F44C
:100A700046EA04042C604C6814F0805F79D0434C43
:100A8000A56945F00105A561A46904F0010400947D
:100A90002CF0030404F1804404F58034A66801E0DE
:100AA0006EE066E04FEA8C754FEA157507FA05FEB1
:100AB00026EA0E0EA0F18046B6F584361ED0A0F1CF
:100AC0008046B6F586361BD0A0F18046B6F588364E
:100AD00018D0A0F18046B6F58A3615D0042606FA5D
:100AE00005F545EA0E05A5604C6814F4801F0DD08D
:100AF000D8F800401443C8F800400CE00026EEE7A8
:100B00000126ECE70226EAE70326E8E7D8F80040EA
:100B10009443C8F800404C6814F4001F05D0D9F87D
:100B200000401443C9F8004004E0D9F80040944361
:100B3000C9F800404C6814F4003F05D0DAF80040D2
:100B40001443CAF8004004E0DAF800409443CAF8BD
:100B500000404C6814F4803F05D0DBF8004022438D
:100B6000CBF8002005E0DBF8004024EA0202CBF8D5
:100B700000200CF1010C0A6832FA0CF27FF41BAF72
:100B8000BDE8F88F08040140000011100010024079
:100B90008068084201D00120704700207047002A79
:100BA00001D0016170470904016170470148806804
:100BB00070470000E000002010B50748016841F0D0
:100BC00010010160032000F07DF8002000F006F81D
:100BD00000F026F8002010BD0020024070B5044649
:100BE0000D4D4FF47A712878B1FBF0F00B4909688C
:100BF000B1FBF0F000F09CFB08B1012070BD102C9F
:100C000007D200222146501E00F028F86C60002018
:100C100070BD012070BD0000E0000020EC0000204D
:100C20000C4808B5816941F001018161816901F0D9
:100C300001010091C16941F08051C161C06900F0BA
:100C4000805000900448416821F0E06141F000715B
:100C5000416008BD001002400000014010B4184B74
:100C60001B68C3F30223C3F1070CBCF1040F01D9C5
:100C70004FF0040C1C1D072C01D2002300E0DB1EEA
:100C8000012404FA0CFCACF1010C0CEA01019940BE
:100C900004FA03F35B1E1A401143002806DB00F13F
:100CA000E020090180F8001410BC704700F00F002C
:100CB00000F1E020090180F8141D10BC704700000D
:100CC0000CED00E000F00700064A11684FF6FF0344
:100CD000194041EA002040F0FD7040F08060106053
:100CE000704700000CED00E02DE9F04704460D468A
:100CF000002C17D0DFF85C81D8F8000000F0070066
:100D0000A84212D2D8F8000020F007002843C8F803
:100D10000000D8F8000000F00700A84205D001202C
:100D2000BDE8F0870120BDE8F08720684A4E10F04A
:100D3000020F14D010F0040F03D0706840F4E0608C
:100D40007060207810F0080F03D0706840F4605095
:100D50007060706820F0F001A0680843706020782F
:100D600010F0010F3AD06068012806D002280BD09D
:100D7000316811F0020F27D00AE0316811F4003F0A
:100D800006D10120BDE8F087316811F0007F18D04E
:100D9000716821F0030108437060FFF707FF074601
:100DA0007068616800F00C00B0EB810F16D041F262
:100DB0008839FFF7FBFEC01B484508D90320BDE872
:100DC000F0870120BDE8F0870120BDE8F08770685A
:100DD000616800F00C00B0EB810FEAD1D8F8000098
:100DE00000F00700A8420FD9D8F8000020F0070053
:100DF0002843C8F80000D8F8000000F00700A84217
:100E000002D00120BDE8F087207810F0040F05D053
:100E10007068E16820F4E06008437060207810F0AA
:100E2000080F06D07068216920F4605040EAC100C4
:100E3000706000F03FF87168084AC1F30311515C1B
:100E4000C8400749086007480068FFF7C7FE002050
:100E5000BDE8F087002002400010024086420008F2
:100E6000EC000020E400002001480068704700000A
:100E7000EC00002000B5FFF7F7FF04494968044A79
:100E8000C1F30221515CC84000BD000000100240C7
:100E90009642000800B5FFF7E7FF04494968044A95
:100EA000C1F3C221515CC84000BD000000100240E7
:100EB000964200080E4B59680E4801F00C02042AB5
:100EC00011D0082A0FD10C48C1F38342805C11F481
:100ED000803F09D05968094AC1F34041515C054A35
:100EE0005043B0FBF1F0704705494843704700009C
:100EF0000010024000127A00764200087442000896
:100F000000093D002DE9F84F0446002C0FD0207851
:100F1000F84D10F0010F6CD0686800F00C00042848
:100F20000CD0686800F00C00082803D010E0012005
:100F3000BDE8F88F686810F4803F09D0286810F485
:100F4000003F56D06068002853D10120BDE8F88FDB
:100F50006068B0F5803F15D0C8B1B0F5A02F1FD0A4
:100F6000286820F480302860286820F480202860D9
:100F7000606858B3FFF71AFE0646286810F4003F71
:100F800017D036E0286840F480302860F0E7286801
:100F900020F480302860286820F480202860E7E76B
:100FA000286840F480202860286840F48030286059
:100FB000DEE7FFF7FBFD801B642802D90320BDE8B4
:100FC000F88F286810F4003FF3D012E0FFF7EEFD31
:100FD0000646286810F4003F0BD0FFF7E7FD801BA2
:100FE000642802D90320BDE8F88F286810F4003F78
:100FF000F3D12078C04F10F0020F4FF0010B4FF0EB
:10100000000854D0686810F00C0F14D0686800F025
:101010000C00082803D1686810F4803F0BD02069C9
:1010200078B3C7F800B0FFF7C1FD0646286810F096
:10103000020F12D01DE0286810F0020F05D02069C1
:10104000012802D00120BDE8F88F2868616920F0EE
:10105000F80040EAC100286029E0FFF7A7FD801BE7
:10106000022802D90320BDE8F88F286810F0020F8B
:10107000F3D02868616920F0F80040EAC1002860D8
:1010800015E0FFE7C7F80080FFF790FD06462868E7
:1010900010F0020F0BD0FFF789FD801B022802D948
:1010A0000320BDE8F88F286810F0020FF3D12078F4
:1010B00010F0080F30D09148A169C1B1C0F800B05C
:1010C000FFF774FD0646686A10F0020F0BD1FFF7B8
:1010D0006DFD801B022802D90320BDE8F88F686AE5
:1010E00010F0020FF3D0012001F0BEF814E0C0F8B8
:1010F0000080FFF75BFD0646686A10F0020F0BD018
:10110000FFF754FD801B022802D90320BDE8F88FA9
:10111000686A10F0020FF3D1207810F0040F6FD03E
:101120000026E86910F0805F08D1E86940F080503F
:10113000E861E86900F0805000900126DFF8C0A166
:10114000DAF8000010F4807F1BD1DAF8000040F4D8
:101150008070CAF80000FFF729FD8146DAF8000028
:1011600010F4807F0DD1FFF721FDA0EB090064286A
:1011700002D90320BDE8F88FDAF8000010F4807F70
:10118000F1D0E068012816D0D0B1052821D0286A16
:1011900020F001002862286A20F004002862E0683C
:1011A00041F2883A68B3FFF701FD8146286A10F0E2
:1011B000020F17D03AE0286A40F001002862EEE7FB
:1011C000286A20F001002862286A20F004002862C2
:1011D000E5E7286A40F004002862286A40F0010030
:1011E0002862DCE7FFF7E2FCA0EB0900504502D9DA
:1011F0000320BDE8F88F286A10F0020FF2D015E046
:101200001AE0FFE7FFF7D2FC8146286A10F0020FD0
:101210000CD0FFF7CBFCA0EB0900504502D903200E
:10122000BDE8F88F286A10F0020FF2D1012E03D129
:10123000E86920F08050E861E069E8B3696801F08E
:101240000C0108295ED0022810D0C7F86080FFF793
:10125000ADFC0446286810F0007F66D0FFF7A6FCBE
:10126000001B022841D90320BDE8F88FC7F8608031
:10127000FFF79CFC0646286810F0007F0BD0FFF7B4
:1012800095FC801B022802D90320BDE8F88F28684E
:1012900010F0007FF3D1206AB0F5803F05D1686877
:1012A000A16820F4003008436860616A206A08433E
:1012B000696821F4741100E037E008436860C7F8FA
:1012C00060B0FFF773FC0446286810F0007F2CD153
:1012D000FFF76CFC001B022802D90320BDE8F88F41
:1012E000286810F0007FF3D01FE0286810F0007F1E
:1012F000B4D11AE000100240000042428004424291
:101300000070004001280DD06868226A00F4803126
:10131000914204D1616A00F47010884205D0012026
:10132000BDE8F88F0120BDE8F88F0020BDE8F88FF8
:10133000401EB0F1807F01D3012070474FF0E021C3
:101340004861044AF020107000208861072008617D
:101350000020704723ED00E008B5034693F84200F3
:10136000202801D0022008BD61B15AB101201863C4
:1013700000205863184601F05DF98446BCF1000F67
:1013800002D006E0012008BD186B012803D04FF001
:10139000010C604608BD1868016840680090186834
:1013A0000C3050E8001F41F0100140E80012002A04
:1013B000F5D1EEE700B50068154A8FB0904224D110
:1013C0000020144AC82901D2505401E082F8C70015
:1013D000104911A001F0CEF914A10E48FEF76DFFDF
:1013E00058B11548818800914378027813A101A86B
:1013F00001F0D0F901A8FFF7D3F80FB0C8220549D2
:1014000012485DF804EBFFF7A7BF0FB000BD000066
:101410000038014084010020425420526563656910
:101420007665643A2025730D0A0000004745545F35
:10143000444154410000000000000020543A25645B
:101440002C483A25642C4C3A25640A00F40000200C
:1014500070470000F8B5044622681068D1685369E7
:1014600000F00F0CBCF1000F0AD110F0200F07D0D4
:1014700011F0200F04D02046BDE8F84001F010B86C
:101480000025BCF1000F75D003F0010C01F490763B
:101490005CEA06066ED010F0010F06D011F4807FD2
:1014A00003D0626C42F00102626410F0040F06D0B7
:1014B00013F0010F03D0626C42F00202626410F07C
:1014C000020F06D013F0010F03D0626C42F0040249
:1014D000626410F0080F08D001F0200252EA0C02FA
:1014E00003D0626C42F008026264626C002A35D05C
:1014F00010F0200F05D011F0200F02D0204600F090
:10150000CFFF20684069C0F38010616C11F0080FB4
:1015100000D148B3204600F08FFF2068406910F0EA
:10152000400F1CD02068143050E8001F21F040010B
:1015300040E80012002AF5D1E06B60B15E494163DA
:10154000E06BFFF7C1F9002808D0E06B416B01B0F8
:10155000BDE8F04008472046FFF77AFFF8BD204677
:10156000FFF776FFF8BD05E0FFE72046FFF770FFC5
:101570006564F8BD236B012B7DD110F0100F7AD07C
:1015800011F0100F77D010685068009050694FF03C
:10159000200310F0400F4FF0020643D0E16B0868C3
:1015A000406880B20028E4D0A28D8242E1D9E08573
:1015B000886920282DD020680C3050E8001F21F4C5
:1015C000807140E80012002AF5D12068143050E8FC
:1015D000001F21F0010140E80012002AF5D1206827
:1015E000143050E8001F21F0400140E80012002AAA
:1015F000F5D184F84230256320680C3050E8001F94
:1016000021F0100140E80012002AF5D1E06BFFF74D
:1016100036F96663A08DE18D401A81B22046FFF74E
:10162000C9FEF8BDA08DE18D401A81B2E08D002881
:10163000F7D00029F5D020680C3050E8002F22F4B4
:10164000907240E8002CBCF1000FF4D120681430F7
:1016500050E8002F22F0010240E8002CBCF1000FFE
:10166000F4D184F84230256320680C3050E8002F14
:1016700022F0100200E008E040E80023002BF3D144
:1016800066632046FFF796FEF8BD10F0800F07D086
:1016900011F0800F04D02046BDE8F84000F0E6BF0E
:1016A00010F0400FF0D011F0400FEDD02046BDE813
:1016B000F84000F0E8BE00002924000870B5044698
:1016C000002C04D094F84100002510B106E0012060
:1016D00070BD84F84050204600F024F8242084F89F
:1016E00041002068C16821F40051C160204600F02B
:1016F0003DFF2068016921F4904101612068416942
:1017000021F02A0141612068C16841F40051C160A3
:101710006564202084F8410084F84200656300205D
:1017200070BD000030B585B000240094019402948F
:101730000394244D0368244802210322AB421AD1AA
:10174000836943F480438361836903F48043049392
:10175000836943F00803836180691C4D00F0080031
:1017600004904020CDE90001039269462846FFF726
:1017700011F980201CE0164DAB4220D1C36943F41F
:101780000033C361C36903F400330493836943F0F6
:101790000403836180690F4D00F00400049004206D
:1017A000CDE90001039269462846FFF7F3F80820C7
:1017B000CDE90004694628460294FFF7EBF805B02E
:1017C00030BD00000038014000100240000C014014
:1017D00000440040000801402DE9F84304460E464D
:1017E00015461F4694F84200202802D00220BDE88A
:1017F000F88386B17DB100206064222184F8421014
:101800002063FFF7D3F98146A585E585A068B0F58B
:10181000805F03D004E00120BDE8F883206990B127
:1018200035460026E08D4FF0200850B34B4600228D
:1018300020212046009700F048FF30B184F8428014
:101840000320BDE8F8830025ECE72DB1A068B0F5D2
:10185000805F1BD038B108E020684068C0F3080002
:101860003080B61C07E0206980B12068406800F035
:101870007F0028706D1CE08D401EE085E08D002803
:10188000D4D184F842800020BDE8F8832068406805
:101890002870EFE770472DE9F84304460E461546D9
:1018A0001F4694F84100202802D00220BDE8F883AA
:1018B0007EB175B100206064212084F84100FFF7FB
:1018C00075F98146A584E584A068B0F5805F03D0F2
:1018D00004E00120BDE8F883206990B13546002678
:1018E000E08C4FF02008C8B14B46002280212046F2
:1018F000009700F0EAFE30B184F841800320BDE893
:10190000F8830025ECE7B5B12168287848606D1CA4
:10191000E08C401EE084E08C0028E5D14B4600229C
:1019200040212046009700F0D0FE58B184F8418055
:101930000320BDE8F88330882168C0F308004860C0
:10194000B61CE5E784F841800020BDE8F8837047C5
:10195000FEE74218491E521E824202D922EA0100C5
:10196000704788437047000010B520491020086078
:1019700020491F48086001F0D3FC040007D01EA0D6
:1019800000F0F8FE21461EA000F0F4FE25E002F073
:10199000E9F9040004D018A000F0ECFE1FA01AE042
:1019A00002F04AFA01F0E0FE002817D101F0C2FC73
:1019B000002813D101F0C0FD040004D00EA000F0F7
:1019C000D9FE1BA007E001F0DDFF040007D00AA04C
:1019D00000F0D0FE1BA000F0CDFE204610BD02F0AE
:1019E00001FCBDE8104001F077BC00004C00002075
:1019F000E8070020DC0000205B4552525D2000001B
:101A00006F734D656D53797374656D496E6974209C
:101A10006572726F722025640A0000006F73546152
:101A2000736B496E6974206572726F720A000000F0
:101A30006F735175657565496E6974206572726F53
:101A4000720A00006F735377546D72496E69742087
:101A50006572726F720A00004268C1E90002426852
:101A60001160416070474268C1E90002426811603C
:101A7000416070474268C1E90002426811604160FC
:101A800070474268C1E900024268116041607047D6
:101A9000D0E900121160D0E900124A6000214160D3
:101AA000016070470068FFF7D7BF70B505000C46AE
:101AB0004FF000000CD0002C0AD0284601F0D7FED1
:101AC000002805D121462846BDE8704001F086BABD
:101AD00070BD01F013BB70B50C4605000AD04CB1C7
:101AE00001F0F6FE012807D02146284601F024FB2C
:101AF000012801D0012070BD002070BD2DE9F84FF4
:101B0000DFF898A00F460500DAF80040A04603D0A1
:101B1000502F01D9A80702D00120BDE8F88FFEF7A9
:101B200025FB8146EE1918E0A068A542204401D8A3
:101B3000A64203D885420ED286420CD318A000F0EC
:101B400019FEA0683246204400902346294616A07C
:101B500000F010FE1BE0A046E468002CE4D13946FA
:101B6000284601F06BFB90B1B7F5805F03D32846A0
:101B700001F0DEFE58B1DAF8001061B1C8F80C507F
:101B80000020E8604846FEF7F9FA0020C5E748461D
:101B9000FEF7F4FAC0E7CAF80050F1E7D8000020D9
:101BA0005B4552525D200000706F6F6C205B2570AA
:101BB0002C20307825782920636F6E666C696374F9
:101BC000207769746820706F6F6C205B25702C2003
:101BD00030782578290A00002DE9F0470D4608984D
:101BE0005FEA020900F104018FB206D04FF6FB71E3
:101BF000884205D92648BDE8F08725480930FAE72C
:101C0000E5B1D8B1DFF88C8005FB07F1D8F800000A
:101C1000FFF74BFF060014D0FEF7A8FA1E4A014654
:101C20005068904210D10846FEF7A8FA3146D8F81D
:101C30000000FFF750FF1648401CDCE714480A304C
:101C4000D9E71348401ED6E7D0E90023A0F11C04D1
:101C50001A60D0E900235360E580278101232660C4
:101C60000022A38022826582A281E281A0F1080283
:101C700052601260406000600830406000600846BA
:101C8000FEF77CFA61890020C9F80010B3E7000074
:101C900003060002DC000020B4000020F8B51C465A
:101CA00015460E46074601F029FD002806D1002101
:101CB0002B4632463846009401F06CFCF8BD7FB5E7
:101CC00082B01C460D46064604AA01F031FD0028EC
:101CD00006D1032104AB2A463046009401F05AFC99
:101CE00006B070BD10B5FEF741FA044601F0AEFB38
:101CF0000A49283848600968814202D008480088AB
:101D000020B12046BDE81040FEF738BA2046FEF765
:101D100035FABDE81040FEF734BA00005C00002040
:101D20003C00002010B502F0EFF9040006D005A039
:101D300000F020FD05A000F01DFD01E0FEF7F2F926
:101D4000204610BD5B4552525D2000006F73546900
:101D5000636B5374617274206572726F720A000053
:101D600070B5044600F034F8002829D1174D2068DA
:101D7000C0EBC000E96800EB400001EB8004FEF717
:101D8000F5F90646A08820F0020040F00400A0808B
:101D9000E18804F1280001F015FB01F057FB05F183
:101DA000200128384860EA695AB12A884AB9096886
:101DB000814206D03046FEF7E1F901F0D3FC002065
:101DC00070BD3046FEF7DAF9F9E700003C0000206C
:101DD0002DE9F0470D465FEA00084FF0FF3A16D0B4
:101DE000C5B12869C8B12968D1B1AA8846481F2A57
:101DF0000BD802D1454A914207D14549454AE86886
:101E0000511A88420FD940481D30BDE8F0873E483E
:101E1000001DFAE73C48801EF7E73B48801CF4E7CA
:101E20003948401CF1E710B94FF43470E8600821DC
:101E3000FFF78FFDE860B0F5987F02D23248C01CF2
:101E4000E3E7FEF793F906464FF00009324C10E045
:101E5000A1F128070846FFF71BFE2F4807F12801CC
:101E60000838FFF7F9FD2A48F968FFF734FEC7F88C
:101E70000C906168A142EBD1274908394868884233
:101E800002D1214C0E3439E0A0F12804FFF700FE06
:101E90003046FEF773F9276908221D48E968FFF705
:101EA00018FE060020D002463846E96802F0A2F982
:101EB0002060A868E6602062E868C4F81890C4F85A
:101EC0001C900221A060A180A988E1802968C4F843
:101ED0003CA0C4F8489061612969C4F850906162DF
:101EE0000020C8F8007090E7FEF740F906460A485F
:101EF00004F128010838FFF7AFFD084C3046FEF723
:101F00003DF9204681E7000003020002D5320008B7
:101F1000E8070020005000207400002000020003A9
:101F200070B5054601F0F8F908B1154870BD1548BF
:101F3000008808B1144870BDEDB1FEF717F9114CD7
:101F4000064620342068283001F020FA2068818875
:101F500021F0040181802946206801F0A9FE206853
:101F6000818841F0200181803046FEF707F9FFF7B4
:101F7000B9FE002070BDBDE8704000F0A3B80000BD
:101F80000D0200033C0000200E0200022DE9F04784
:101F9000494D07464FF0FF3A6869874202D14748EA
:101FA000BDE8F087A869874202D144480D30F7E7C1
:101FB0002869874202D341480D38F1E7FEF7D6F889
:101FC0008046C7EBC700E96800EB400001EB8004E6
:101FD000A688F00706D0394C40460A3CFEF7CEF8FA
:101FE0002046DDE7F0064FF0000903D5288808B148
:101FF000A5F80090700708D504F1280001F0C6F993
:10200000A08820F00400A08007E042F20800064209
:1020100003D004F12800FFF73BFD16F0600F02D05B
:10202000204602F0A9F8A08820F0020040F001004C
:10203000A080C4F83CA0C4F8489001F007FA1E4EF6
:102040004FF0010A2036283870602079C0061FD56D
:1020500004F1280106F11800FFF724FD2869E9685A
:10206000C0EBC00000EB400001EB80003060076176
:102070003168A08888803068E168C160616A416227
:10208000A4F804A04046FEF779F801F06BFB10E0DD
:102090000948A4F804A004F128013030FFF7DCFC63
:1020A0000748E168FFF717FD4046C4F80C90FEF7BB
:1020B00065F8002074E700003C00002014020002D4
:1020C000E807002070B5194CA4F1200220681269BD
:1020D0000169914201D3164870BD0079400701D4CF
:1020E000002070BDFEF742F805462068C08801F068
:1020F0009BF9012813D920682830FFF7C9FC206814
:10210000818841F0040181802068C188283001F075
:1021100059F92846FEF732F8FFF7E4FDE0E72846D4
:10212000FEF72CF80248093070BD00005C0000206A
:10213000070200020149D1E9000170479000002028
:102140000E4D0F4C4FF4FA76012208212846FEF777
:1021500026FDA07808B1642000E03046FFF7E0FEDD
:10216000002208212846FEF71AFDA07808B1642055
:1021700000E03046FFF7D4FEE6E70000000C014027
:102180000000002070B586B0002418480094019427
:1021900002940394816941F004018161816901F035
:1021A00004010491816941F0080181618069104E48
:1021B00000F008004FF44275049000222946304692
:1021C000FEF7EDFC01200095CDE90104022003900B
:1021D00069463046FEF7DEFB3020CDE90004694653
:1021E00030460294FEF7D6FB06B070BD00100240E8
:1021F000000C01400C4810B50A4901604FF416511B
:102200004160002181600C22C160C0E9041281613B
:10221000C161FFF753FA002803D0BDE81040FEF774
:102220002CBB10BD00380140F40000200C4810B554
:102230000A4901604FF4E1314160002181600C22C4
:10224000C160C0E904128161C161FFF737FA00285B
:1022500003D0BDE81040FEF710BB10BD00440040A5
:102260003C010020FEE7704781B007494FF4FA5265
:102270000968B1FBF2F14843009000BF0098411E8D
:102280000091FAD201B07047EC00002070470000C6
:102290001CB500251E4C2E464FF400774FF4FA680B
:1022A0008DF800608DF80460694601A8FEF70CFA0D
:1022B000D8B16D1CEDB2294616A000F05BFA052DD1
:1022C00003D9A07840F00100A070A7809DF800001D
:1022D0000A381A2805D29DF804001E2801D3502878
:1022E0000ED9A07840F002000DE09DF8001021709A
:1022F0009DF804206270002510A000F03BFAE4E78E
:10230000A07820F00200A0704046FFF709FEC7E762
:10231000000000205B53656E736F725D204448546B
:1023200031312052656164204572726F72202863DA
:102330006F756E743A202564290D0A005B53656E33
:10234000736F725D2054656D703A202564C2B0438E
:102350002C2048756D693A20256425250D0A00005A
:102360000648006808B101F0BBBE0548D0E900127C
:10237000491C42F10002C0E90012704784000020AD
:102380009000002030B58FB028216846FDF78AFF05
:1023900014210AA8FDF786FF02250120049000956C
:1023A0001020059000244FF46010CDE908400795F7
:1023B0006846FEF7A7FD08B172B6FEE70F20CDE92B
:1023C0000A054FF48060CDE90C4002210AA80E9462
:1023D000FEF78AFC002801D072B6FEE70FB030BDD0
:1023E0000E48016841F00101016041680C4A11404A
:1023F0004160016821F4102121F0807101600168C1
:1024000021F480210160416821F4FE0141604FF414
:102410001F0181600349C00308607047001002403B
:102420000000FFF808ED00E010B5406A0021C1850A
:10243000C184FFF70DF810BD01680C3151E8002F81
:1024400022F4907241E80023002BF5D10168143189
:1024500051E8002F22F0010241E80023002BF5D1C2
:10246000016B012909D101680C3151E8002F22F0DC
:10247000100241E80023002BF5D1202180F8421002
:1024800000210163704710B50168CA6822F040025C
:10249000CA60202180F84110FFF759FA002010BDD2
:1024A00008B590F84210222901D0022008BD8268A8
:1024B000B2F5805F01D1016929B1816AB2F5805F0F
:1024C0001DD052B10BE0816A02685268C2F3080263
:1024D0000A80816A891C816209E002697AB1026816
:1024E000526802F07F020A70816A491C8162C18DC4
:1024F000491E0904090CC18505D0002008BD0268E9
:1025000052680A70F0E70168CA6822F02002CA60C7
:102510000168CA6822F48072CA6001684A6922F0C0
:1025200001024A61202180F8421000214163026BC0
:10253000012A03D0FFF7AEF9002008BD016301684E
:102540000C3151E8002F22F0100241E80023002B4B
:10255000F5D101680A6812F0100F02D00A684968C4
:102560000091818DFEF726FFE6E7000070B5044676
:1025700020680169E26821F4405111430161216939
:10258000A0680843616901432068C26822F40372AD
:1025900022F4A0521143C16020684169A26921F46C
:1025A0004071114341612068A0F18041B1F59C3137
:1025B0003AD0FEF75FFC00EBC00101EB0010616850
:1025C0001B4A8900B0FBF1F3A2FB0353B0FBF1FC03
:1025D0005B096FF018056B430CEB83034FF0320C73
:1025E0000CEB0313A2FB03535B0903F0F005B0FBF4
:1025F000F1F3A2FB03635B0905EB0313B0FBF1F5F9
:10260000B0FBF1F0A2FB001040096FF01801484345
:1026100005EB80000CEB0010A2FB00102168C0F35A
:1026200043101844886070BDFEF734FCC3E7000017
:102630001F85EB5181628285C28500214164222180
:1026400080F842100169002904D00168CA6842F488
:102650008072CA6001684A6942F001024A610068FA
:10266000C16841F02001C1600020704790F841101E
:10267000212901D0022070478168B1F5805F01D126
:10268000016961B1016A4A1C0262026809785160FD
:10269000C18C491E0904090CC1840AD013E0016AE7
:1026A00002680988C1F308015160016A891C01624E
:1026B000EEE70168CA6822F08002CA600068C1685B
:1026C00041F04001C160002070472DE9F843044605
:1026D000089E0D46174698462068006835EA0000B7
:1026E00028D00020B84232D1B6F1FF3F27D0FEF704
:1026F0005DFAA0EB0800B0421ED8EEB12068C168B8
:1027000011F0040F1BD0802D19D0402D17D0016877
:1027100011F0080F13D00025216809684068009067
:102720002046FFF789FE0820606484F840500120AD
:10273000BDE8F8830120D5E70320BDE8F8832068D1
:10274000006835EA000005D00020B842CCD0002057
:10275000BDE8F8830120F8E70148FEF77BBE0000E2
:10276000F40000200148FEF775BE00003C01002087
:10277000FEE700000FB4054B10B503A9044A029808
:1027800000F02CF810BC5DF814FB0000492C000888
:10279000F00000200FB4084B10B504A902AA03985A
:1027A00000F01CF8044602A9002000F048FA204678
:1027B00010BC5DF814FB00003F2C000802E008C8C4
:1027C000121F08C1002AFAD170477047002001E0AB
:1027D00001C1121F002AFBD1704700002DE9FF4FF5
:1027E0008DB00F460546002606E025280BD0DDE912
:1027F0000F1290476D1C761C28780028F5D111B077
:102800003046BDE8F08F0024A246A1460122EC49E3
:1028100000E0044315F8013F203B02FA03F00842B0
:10282000F7D128782A2810D06FF02F022878A0F14D
:102830003001092914D80AEB8A0102EB410144F066
:10284000020400EB010A6D1CF0E701CF5FEA000A09
:1028500003D544F40054CAF1000A44F002046D1C8C
:1028600028782E2817D115F8010F44F004042A28DF
:102870000ED06FF02F022878A0F1300109290AD874
:1028800009EB890102EB410100EB01096D1CF2E744
:1028900057F8049B6D1C28786C280FD006DC4C2858
:1028A00017D068280DD06A2814D104E0742810D0FD
:1028B0007A280FD10DE044F400140AE044F48014A7
:1028C00001E044F440146978814202D104F5801497
:1028D0006D1C6D1C2A786E2A1FD00CDC632A31D047
:1028E00004DC002A8BD0582A11D1A3E0642A68D0D6
:1028F000692A0CD165E0732A2ED004DC6F2A73D0CC
:10290000702A04D19BE0752A6FD0782A6ED01046C9
:10291000DDE90F129047761C50E1C4F30250022803
:1029200006D0032809D0042801CF09D0066045E16C
:1029300001CFF117C0E9006140E101CF06803DE120
:1029400006703BE117F8040B8DF8000000208DF8AD
:102950000100EB46012003E057F804BB4FF0FF30C5
:1029600061074FF0000102D40DE008F10101884633
:1029700049450FDA8045F8DB1BF808100029F4D12F
:1029800008E008F1010188468142FADB1BF80810D3
:102990000029F6D1DDE90F23AAEB08008146214684
:1029A00000F036F9304400EB080604E0DDE90F12D0
:1029B0001BF8010B9047B8F10108F7D221464846B1
:1029C000F7E00A21C4F302534FF0000B0891022BE9
:1029D00004D001CFC117032B09D00AE0FF1D27F057
:1029E0000707F7E8020108E032E01FE020E000B24C
:1029F000C117042B01D140B2C117031E71F10003AE
:102A000007DA4FF0000CD0EB0C006CEB01012D232A
:102A100002E0230504D52B238DF82430012303E0A5
:102A2000E30701D02023F7E7984658E00A2110E099
:102A300010210EE010204FF0000B08900CE0102148
:102A40004FF0000B44F004044FF00809089103E034
:102A500008214FF0000B0891C4F30253022B04D05D
:102A600001CF0021032B06D006E0FF1D27F007074A
:102A7000F7E8020103E080B2042B00D1C0B24FF0AE
:102A8000000823072BD5702A07D0DDF820C08CF072
:102A9000100C5CEA0B0C05D00EE040238DF82430BE
:102AA000012308E050EA010306D030238DF82430DA
:102AB0008DF8252002239846DDF820C08CF0080C04
:102AC0005CEA0B0C0BD150EA010301D1630706D578
:102AD00030238DF824304FF00108A9F10109582A5C
:102AE00004D038A20B9208AA0A920BE03AA2F9E7A6
:102AF0005B46089AFDF77CFB0B9B9B5C0A9A521E77
:102B00000A92137050EA0102F2D10A98ADEB00006C
:102B100000F1200B600702D524F4803401E04FF06F
:102B20000109D94502DDA9EB0B0000E0002000EB14
:102B30000B0141440890AAEB010AE00306D4DDE949
:102B40000F232146504600F063F806444FF0000979
:102B500008E009A911F80900DDE90F12904709F111
:102B60000109761CC145F4DBE0030CD5DDE90F2338
:102B70002146504600F04CF8064404E0DDE90F120F
:102B800030209047761C0899481E08900029F5DCF3
:102B900008E00A980A990078491C0A91DDE90F12A9
:102BA0009047761CBBF10001ABF1010BF1DC214633
:102BB0005046DDE90F2300F019F806446D1C1BE6B2
:102BC0000928010030313233343536373839616203
:102BD00063646566000000003031323334353637C7
:102BE0003839414243444546000000002DE9F04198
:102BF000044600251E461746880404D405E03946DD
:102C00002020B0476D1C641EF9D52846BDE8F08130
:102C10002DE9F041044600251E469046C80301D523
:102C2000302700E02027880404D505E041463846D7
:102C3000B0476D1C641EF9D52846BDE8F0810A68CE
:102C4000531C0B601070704713B54FF0FF33012217
:102C500069460248FEF71FFE00981CBD3C0100209B
:102C6000FDF7AAFFFFF78EFBFFF78CFAFFF7C2FA1A
:102C7000FFF7DCFA23A0FFF77DFD2EA0FFF77AFD1A
:102C800035A0FFF777FDFDF709FD002824D03DA012
:102C9000FFF770FD45A0FFF76DFDFDF749FBC8216B
:102CA0004C48FDF7C5FB4CA0FFF764FD524C0122D8
:102CB00011022046FDF773FF002208212046FDF790
:102CC0006EFF4EA0FFF756FDFEF74EFE010005D049
:102CD00054A0FFF74FFDFEE75DA0D9E766A0FFF720
:102CE00049FDFDF7ADFB010003D06AA0FFF742FDEF
:102CF000FEE772A0FFF73EFD7AA0FFF73BFDFFF76E
:102D000011F8FEE70D0A3D3D3D3D3D3D3D3D3D3D5C
:102D10003D3D3D3D3D3D3D3D3D3D3D3D3D3D3D3DE3
:102D20003D3D3D3D3D3D3D3D3D3D3D3D3D3D0D0A36
:102D30000000000053544D33322053656E736F72A0
:102D4000204D6F64756C652077697468204C6974D8
:102D5000654F530D0A0000003D3D3D3D3D3D3D3D6D
:102D60003D3D3D3D3D3D3D3D3D3D3D3D3D3D3D3D93
:102D70003D3D3D3D3D3D3D3D3D3D3D3D3D3D3D3D83
:102D80000D0A00005B496E69745D2044485431317E
:102D900020696E697469616C697A6174696F6E200B
:102DA0006661696C65640D0A000000005B496E692C
:102DB000745D20436F6E6669677572696E67204146
:102DC00054303920426C7565746F6F74682E2E2EE6
:102DD0000D0A0000840100205B496E69745D20418A
:102DE00054303920426C7565746F6F746820726559
:102DF0006164790D0A000000000C01405B496E69B6
:102E0000745D20496E697469616C697A696E6720C6
:102E10004C6974654F53206B65726E656C2E2E2E57
:102E20000D0A00005B4572726F725D204C6974651B
:102E30004F53206B65726E656C20696E69742066F5
:102E400061696C65643A20307825580D0A000000ED
:102E50005B496E69745D20444854313120696E6964
:102E60007469616C697A65642073756363657373F3
:102E700066756C6C790D0A005B496E69745D204360
:102E800072656174696E67207461736B732E2E2E88
:102E90000D0A00005B4572726F725D205461736BA6
:102EA000206372656174696F6E206661696C656428
:102EB0003A20307825580D0A000000005B496E6901
:102EC000745D205374617274696E67204C69746517
:102ED0004F53207363686564756C65722E2E2E0DDA
:102EE0000A0000003D3D3D3D3D3D3D3D3D3D3D3DFC
:102EF0003D3D3D3D3D3D3D3D3D3D3D3D3D3D3D3D02
:102F00003D3D3D3D3D3D3D3D3D3D3D3D0D0A0D0AB7
:102F10000000000010B586B0044614216846FDF795
:102F2000C1F96946204600F0B1F906B010BD4A0962
:102F300000EB82020068121D884206D901F01F03CF
:102F400001211068994088431060704730B502C86D
:102F50001F314B0900210A4614E00468641C0FD09D
:102F60000468E34301E05B08491C002BFBD14B1EC6
:102F700001259D402C43046001EB4210401E30BDF2
:102F8000001D521C9A42E8D34FF0FF3030BD02685A
:102F90008A4201D8002070474A0900EB820001F004
:102FA0001F024068012191400840F4D00120704781
:102FB00070B5054601600C4601F11F00C108281DCF
:102FC000FDF770F9E00608D004F01F014FF0FF3064
:102FD0008840610905EB8101486070BD2DE9F04131
:102FE00000240D462746061E5ED0FDF7BFF880463A
:102FF000ED1C25F00305706810E041684A000CD410
:1030000021F04041A94208D324B1626822F0404235
:103010008A4202D90446A94221D000680028ECD196
:10302000ECB3606820F04040401B082817D96219B3
:1030300052F80C0F20F0804042F804096168491BE7
:10304000083961F31D00C2E900402146304600F016
:1030500012F928B30260606865F31D00606054F8DF
:10306000040F20F0004040F0804001C4144827467F
:103070008168294408318160C268914200D9C160E9
:103080000168491C01607068406820F04040B0F55C
:10309000806F02D23046FFF73DFF404601E005E079
:1030A0000CE0FDF76BF83846BDE8F08105A0FFF7AE
:1030B00061FB294605A0FFF75DFBE4E77260CAE704
:1030C000C80000205B4552525D20000074686572A4
:1030D000652773206E6F7420656E6F756768207743
:1030E000686F6C6520746F20616C6C6F632025784D
:1030F000204279746573210A0000000070B51446FF
:1031000028B121B1042C02D3651E2C4201D000202D
:1031100070BD2144091FFFF761FF0028F8D0011995
:10312000491EA9438842F3D0081A40F0004041F8F4
:10313000040C084670BD00002DE9F04101260C4644
:10314000050018D0BCB154F8040C002802DA20F0B5
:1031500000400C1A2868A04203D868680830A042D2
:103160000BD22EA0FFF706FB21462EA0FFF702FB95
:103170000020BDE8F0810120FBE7FCF7F7FFA4F198
:1031800008020746506840000ED5286890420DD0CE
:103190001168814208D368680830814204D8284603
:1031A00000F069F8904201D0002631E05068224BCF
:1031B00020F0804020F040415060986801F1080400
:1031C000844204D8401A0838986000E0024610682B
:1031D00068B141684900F9D509E0546821440831D3
:1031E00061F31D0454606968814200D16A60114630
:1031F000284600F040F810B141684C00EDD511466A
:10320000284600F038F800B102605868401C586049
:103210003846FCF7B3FF3046ABE700005B4552523F
:103220005D20000030782578206F7574206F66204F
:1032300072616E6765210A00C800002070B50E46F5
:103240000446050001D0582E01D8002070BD20464C
:10325000FDF728F850342C60C5E901466068583EF7
:1032600020F08040606000202060606866F31D00F0
:103270006060012070BD4068884201D10020704725
:10328000486820F0404008440830704730B50022BC
:1032900078B171B1436807E05C68650003D524F03C
:1032A0004044224408321B68002BF5D183689342C6
:1032B00001D2012030BD4A6080680860801A8860B1
:1032C00003480268CA6040680861002030BD000001
:1032D000C8000020FEE7000000B587B0182168464E
:1032E000FCF7E0FF074800904FF4A060039006A0B1
:1032F00004901F20ADF8040069460648FEF730FD33
:1033000007B000BDD532000849646C65436F726533
:103310003030300050000020EFF30580704700008F
:1033200002480349091AFEF7E9BB0000E80700203C
:10333000005000202DE9F04111484FF4B471406075
:10334000006010480068FEF7B0FB0D4D2D1F28608F
:1033500098B1002426462F1D296804EB440001EB98
:10336000C0014C6001F8086B3868FEF77CFB641CF8
:103370000F2CF1D30020BDE8F0810348FBE70000EB
:10338000A8000020DC000020001D0002D0E900128F
:103390001160D0E900124A6000214160016030F8FC
:1033A000221C0748426802EBC1025368934205D1D0
:1033B0004FF00042CA40016891430160704700002D
:1033C000180000200A4B10B55A6802EBC10254687D
:1033D000944205D14FF00044CC4019680C431C6066
:1033E00011684A68C0E900124A681060486010BD60
:1033F0001800002010B50A4800244FF480710068BE
:10340000FEF753FB07490028486007D0486800EBE7
:10341000C400641C40600060202CF7D310BD000085
:10342000DC000020180000200749034600204A68FD
:1034300002EBC30102EBC302496801E04968401C8A
:103440008A42FBD17047000018000020054801683F
:1034500031B14068B1FA81F100EBC10040687047BA
:1034600000207047180000202DE9F0411E46044658
:10347000134611F003004FF000050BD0012812D0C5
:10348000032817D022A0FFF775F9BDE8F04122A06C
:10349000FFF770B9A089E788421CBA4201D1A58123
:1034A00010E0A2810EE0A08900B9E088401EA08152
:1034B00080B207E0E089E788421CBA4201D1E58189
:1034C00000E0E2812289256800FB025548074FEAA7
:1034D000C17007D518B118682860BDE8F081286868
:1034E0001860FAE750B1194628463268FCF7C1FE69
:1034F00020892D1F284431680160EEE7281F104401
:103500002946046818462246FCF7B3FE3460E4E717
:103510005B4552525D200000696E76616C696420E3
:103520007175657565206F70657261746520747959
:103530007065210A0000000070B513484FF4DC7478
:1035400021460068FEF7B1FA104D2860D0B121463F
:10355000FCF7A8FE281D0024406000604FEA00062A
:1035600004EB4400296800EBC40001EB80014C81AE
:103570001C313068FEF77EFA641CA4B20A2CEFD32B
:10358000002070BD024870BDDC000020B0000020AB
:10359000010600022DE9FF5F9A460F46044600250A
:1035A00001F00106DDF838B0FCF7E0FD4F49814637
:1035B00004EB4400096800EBC40001EB8004A08820
:1035C00050B1F8072089DAF80010A0F1040006D005
:1035D000814209D9464D83E0454D0B3D80E0814253
:1035E00002D2434D0A357BE004EB4600018A91B1DB
:1035F000491E0182534639462046029AFFF734FF9E
:10360000002E37D04FF0000004EBC000816934D1A8
:103610004FF0010032E0BBF1000F05D035480088C3
:1036200050B1334D0F3D5BE0F80702D0304D6D1CBB
:1036300056E02F4D083553E02F485A464FF40051BD
:10364000D0F8008004EBC600143000F003FD4846BB
:10365000FCF794FDFEF746FBFCF788FD8146B8F8C1
:1036600004004106C6D5224D20F04001A8F8041000
:103670000E3D35E04FF00100C6E7002004EBC0002E
:103680001430814215D096B15FF0000004EBC00009
:103690004FF400518069283800F002FD4846FCF7DD
:1036A0006DFDFEF71FFB002004B0BDE8F09F012078
:1036B000ECE7002E0CD000BF4FF0000004EB400000
:1036C000008A00F1010080B205D14FF0010104E051
:1036D0004FF00100F2E74FF0000104EB41010882D6
:1036E0004846FCF74BFD2846DEE70000B00000200E
:1036F000150600023C0000205C00002010B50A28DE
:1037000001D30A4810BD49B142B1106848B15BB15C
:10371000FFF702FE40B105480A3010BD0348401CC7
:1037200010BD0248801C10BD002010BD0E06000216
:1037300010B50A2801D30A4810BD41B1106848B13C
:103740005BB1FFF7E9FD40B10548401F10BD0448DB
:10375000001D10BD0248401D10BD002010BD00001E
:103760000E060002FCF70DBD2DE9F04110484FF4A4
:10377000A071406000600F480068FEF796F90C4D9C
:103780002D1F286090B1002426462F1D286800EBCD
:103790000411CC8021F8086B3868FEF772F9641CBC
:1037A000A4B2142CF2D30020BDE8F0810248FBE75C
:1037B000C0000020DC0000200007000210B5044615
:1037C0008068FFF7C3FB002801DA002010BDD4E9B0
:1037D000001201FB002010BD10B503464068081A16
:1037E0001968B0FBF1F4B0FBF1F201FB120068B90B
:1037F00098680168A14209D92146FFF7C8FB28B1A2
:1038000021469868FFF793FB012010BD002010BDF2
:103810002DE9F0411F460B4607F11F01042404EB7C
:10382000D1018E18511E9D18761E6D1E8E438D433C
:1038300005FB07610C31FFF7D1FB040008D004F150
:103840000C0081192560C4E901103946FFF7B0FB6F
:103850002046BDE8F0814DF6DE6220F8022B00F82C
:10386000021B002100F8011C70471030704770B532
:103870000E46FFF7FAFF00240546802E26D805EBFA
:1038800004100068B0421ED3FCF770FC05EB041472
:103890000646D4E90101814211D2E06878B1FFF710
:1038A0008DFF050006D02168FFF7D5FF0546A0680B
:1038B000401CA0603046FCF761FC284670BD3046D5
:1038C000FCF75CFC02E0641C042CD8D3002070BD23
:1038D0002DE9F0410C46FFF7C8FF074634F8040D08
:1038E0000026A0F55E413546DE391ED194F802006F
:1038F00007EB05110968884214D8FCF737FC07EB81
:10390000051580462146E868FFF766FF012803D1C8
:10391000A8680126401EA8604046FCF72FFC3046F0
:10392000BDE8F0816D1C042DE2D30020F8E7000013
:103930002DE9F05F8346FFF798FF002407462646EF
:10394000A1464FF010084FF4007A00BF08FA04F1C6
:10395000BAFBF1F307EB041585E80A02E86808B141
:10396000761C05E004225846091DFFF751FFE86068
:10397000641C042CEAD316B10020BDE8F09F01209E
:10398000FBE70000F8B540211A48FCF78BFC1A4D04
:103990001A4800274FF4E071AF610E460068FEF749
:1039A00084F804001CD03146FCF77CFC2C616C616F
:1039B000278120461C340121218104602046491CB6
:1039C00089B21C341029F7D308200B4A0023009039
:1039D0000C3210211846FEF7FFF820B10848F8BD58
:1039E0000748001FF8BD00F0EFF80028FAD004489F
:1039F000401CF8BD4C02002020000020DC0000200C
:103A00000B0300022DE9FC4F0023591E0191009188
:103A10000169C160017A5B4C01F00F065A4D54F800
:103A200026104FF0030B4FF01009AD694A461F46B0
:103A3000DC46BBEB517F68D141F0004144F82610D1
:103A400021F07F4A0021A6465EF821C03CF07F4469
:103A50002ED0B1422CD0BBEB9C7F29D1D44654450B
:103A600006D3B4FBFCF80AFB184CBCF1000F0AD0DB
:103A7000D44654451CD2BCFBF4F804FB18ACBCF192
:103A8000000F0BD014E0B4FBFAF8DDF804C0E045F9
:103A90000ED2B4FBFAF48946019409E0BAFBF4F8BB
:103AA000DDF800C0E04503D2BAFBF4F200920A460A
:103AB000491C89B21029C7D33349B9F1100F0969DC
:103AC0001AD0C9EBC9042A4601EB840106E0D46888
:103AD0000E8927441489B44203D01268002AF6D113
:103AE00034E062B31169CC1B0169B4FBF1F201FB54
:103AF0001242891AC16029E0102A27D00023C2EBA4
:103B0000C202C36001EB82031EE00222B2EB517FCE
:103B10001CD141F0004144F82610294662460CE0D1
:103B20000E690769BE4207D10E7A06F00F0654F8F7
:103B30002660B2EB967F03D009680029F0D105E03A
:103B400021B100220B46C26019680BE0294607E04C
:103B5000CA68C468A24205D8A21A0B46C2600968A6
:103B60000029F5D1016019B1CA68C468121BCA6086
:103B700023B1186002210171BDE8FC8F0249886100
:103B8000F8E700004C020020200000200EB50820BD
:103B90000C4C4FF0FF3500902B466A4601A9E068B7
:103BA000FEF77CF80028F7D100980828F4D1019896
:103BB0000028F1D0FEF7BEFADDE901108847FEF7D4
:103BC000B9FAE9E72000002000B587B0182168465F
:103BD000FCF768FB074800904FF48050039006A064
:103BE00004900020ADF8040069460648FEF7B8F8D6
:103BF00007B000BD8D3B00085377745F5461736B51
:103C000000000000540000207CB5184D26E020681C
:103C1000A861A069009060690190002308226946AC
:103C2000E868FEF74CF8607920B1012810D002282E
:103C300014D111E0204600F01BF820894FF6E07106
:103C4000884201D2103001E000F00F00208105E031
:103C50002046FFF7D7FE01E001202071AC69002C5F
:103C600002D0E0680028D2D07CBD000020000020F7
:103C700006494A690260486100210171007A044ADC
:103C800000F00F0042F820107047000020000020D4
:103C90004C020020054810B5806928B1C168491E52
:103CA000C16001D1FFF7B0FF002010BD200000204F
:103CB000F0B4024611F01F034FEA511000D1401E2C
:103CC000916B1B4C01F0784101432079184400F0BE
:103CD0001F0060F3DF619163216801EBC00302F113
:103CE00030015868984201D118461DE03038956B74
:103CF000876B25F0784427F07846A6420AD8A41BA3
:103D000005F078452C439463446BA4F130009C4249
:103D1000EDD108E027F0784325F078429A1A07F0B1
:103D200078431A4382633030F0BCFDF7BBBE00001D
:103D30007C00002070B5094DC0EBC00000EB4000D6
:103D4000E96801EB80046169206A884700202880C7
:103D50002069BDE87040FEF719B900003C00002062
:103D600072B6FEE72DE9F041304D5420304F2C69FA
:103D7000641C444321463868FDF797FEDFF8B480A1
:103D8000E860E8B32146FCF78DFA05F1280000242D
:103D90004060006008304060006008305FF001065D
:103DA00040600060C4EBC400E96800EB400001EB38
:103DB00080011E488E800C6130302831FDF772FE84
:103DC000641C0F2CEED900266E622869E968C0EBEE
:103DD000C00000EB400001EB80011448203001607E
:103DE0000C6102681121918000682021C180FFF7D9
:103DF00001FB4FF480710D463868FDF756FE00E078
:103E000012E0040010D02946FCF74CFA0748403075
:103E100004608680002064602460401C08342028F0
:103E2000F9D30020BDE8F0814046FBE73C000020CC
:103E3000DC0000200002000310B54FF4AB7106480F
:103E4000FCF730FA04490A204870054803494160EC
:103E50000021816010BD00008C020020193F000885
:103E60003C0000202DE9F0412A4800270179491C37
:103E700001F01F018180006800EBC1056C68AC4255
:103E800045D0303C04F13000A84206D0A06BA68893
:103E9000400108D0A06B401EA063002F37D0BDE8C2
:103EA000F041FDF71FBF04F13000FDF7F1FD3007D1
:103EB0000BD5A08820F00800A08004F12800FDF7B1
:103EC000E7FD0020A061E06113E0700503D5A08844
:103ED00020F480600CE0B00407D504F12800FDF761
:103EE000D7FDA08820F4005002E0A08820F0200038
:103EF000A080B00709D4A08840F00400A080E18829
:103F000004F12800FFF75EFA01276C68B9E7BDE805
:103F1000F08100007C00002010B52A4C2068C068A9
:103F20000068B0F1CC3F08D027A0FEF723FC206842
:103F30000269416A26A0FEF71DFC6068C26801683C
:103F4000914203D980681044884211D21EA0FEF726
:103F500011FC60680269416A27A0FEF70BFC1AA0F9
:103F6000FEF708FC6068C26801682CA0FEF702FC3E
:103F70006068374C018A227804EB42025180416A22
:103F80002078202204EB40101630FCF772F92178DB
:103F9000002004EB411181F835002178491CC9B299
:103FA00021700A2904D12070607840F08000607090
:103FB000044820388068002802D0BDE8104000473F
:103FC00010BD00005C0000205B4552525D200000E7
:103FD00043555252454E54207461736B2049443A04
:103FE0002025733A256420737461636B206F7665B6
:103FF00072666C6F77210A00484947484553542040
:104000007461736B2049443A2025733A2564205328
:1040100050206572726F72210A00000048494748BB
:10402000455354207461736B20537461636B506FFC
:10403000696E7465723A203078257820546F704F1D
:1040400066537461636B3A20307825780A0000006B
:104050008C0200202DE9F0418046104816460F469C
:10406000046804F128000546FFF790F9A088294666
:1040700020F004003843A0804046FDF713FD701C7B
:1040800009D0A088314640F04000A0802046BDE81D
:10409000F041FFF70DBEBDE8F08100005C0000209C
:1040A00070B5044628300D460646FDF7F1FCA088A1
:1040B000A843A080400606D5204600F05DF8A08801
:1040C00020F04000A080A088810708D440F00400C0
:1040D000A080E1883046BDE87040FFF773B970BD3D
:1040E000084810B5D0E90221521C41F10001C0E995
:1040F000022100F05BF8FFF7B5FEBDE81040FFF7C6
:10410000C9BD000088000020154810B5006818B12E
:104110004FF47A71884201D2124810BDB0FBF1F21F
:10412000114B124CB0FBF1F01A600022C4E90022DE
:104130000122401EB0F1807F02D30A48801C10BDCE
:104140004FF0E02148610A4BF02083F8140D002065
:1041500088610720086107480260002010BD000048
:10416000EC000020000400029800002090000020D5
:104170000FE000E08400002030B40B4B826B1B6822
:10418000D10E03EBC103416B994209D08B6822F039
:10419000784223F07844224403F078431A438A603B
:1041A00030BC3030FDF774BC7C0000200B480A495D
:1041B00002680B480B680068934204D00A60CB8801
:1041C000421E1A448A808A8880B2824203D100202B
:1041D0000860FDF777BF70479C0000205C0000205E
:1041E000900000200248002101600A21C180704730
:1041F0009C00002070B5144605460E464FF0CA32AA
:104200002046FCF748F84FF0CC302060A0194FF062
:10421000043140F8441D4FF0053141604FF0063144
:1042200081604FF00731C1604FF0083101614FF0FC
:10423000093141614FF0103181614FF01131C1619D
:104240000021C0E908154FF0013181624900C162C7
:104250004FF0033101634FF0123141630349816331
:104260000349C1634FF08071016470BD613D000876
:10427000353D0008010202030405060708090A0B80
:104280000C0D0E0F101000000000000000000102D5
:1042900003040607080900000000010203040000EF
:1042A000C042000800000020F4000000BC27000805
:1042B000B4430008F4000020F4060000CC270008F6
:1042C00000000000000000000000000000000000EE
:1042D00000000000000000000000000000000000DE
:1042E00000000000000000000000000000000000CE
:1042F00000000000000000000000000000000000BE
:1043000000000000000000000000000000000000AD
:10431000000000000000000000000000000000009D
:10432000000000000000000000000000000000008D
:10433000000000000000000000000000000000007D
:10434000000000000000000000000000000000006D
:10435000000000000000000000000000000000005D
:10436000000000000000000000000000000000004D
:10437000000000000000000000000000000000003D
:10438000000000000000000000000000000000002D
:10439000000000000000000000000000000000001D
:1043A00001000000100000000000000000A24A040C
:0443B0000000000009
:04000005080000ED02
:00000001FF
